:100000000C94E2000C940A010C940A010C940A016D
:100010000C940A010C940A010C940A010C940A0134
:100020000C940A010C940A010C94560C0C94C50C07
:100030000C940A010C940A010C940A010C940A0114
:100040000C940A010C940A010C940A010C940A0104
:100050000C940A010C940A010C940A010C940C0CE7
:100060000C940A010C940A010C940A010C940A01E4
:100070000C940A010C940A010C940A010C940A01D4
:100080000C940A010C940A010C940A010C940A01C4
:100090000C94F70E0C940A010C940A010C940A01BA
:1000A0000C940A010C940A010C940A01080B00023A
:1000B0000202000009040000010202000005240001
:1000C0001001052401010104240206052406000193
:1000D0000705810310004009040100020A00000026
:1000E00007050202400000070583024000000403E8
:1000F000090412010002EF02014041233680000191
:100100000102030141726475696E6F204C4C43001B
:1001100041726475696E6F204C656F6E6172646FB9
:100120000000000000250028002B002E00310004F4
:10013000040404040304050202020204030202028E
:100140000206060606060604040202020404040867
:1001500002011040804010204080408008020401CD
:10016000804020100201108010204040200000003C
:100170000200090F0000030401000C000000000051
:10018000000000000000000000000000050109025E
:10019000A1010901A1008501050919012903150023
:1001A00025019503750181029501750581030501FE
:1001B0000930093109381581257F750895038106B5
:1001C000C0C0491011241FBECFEFDAE0DEBFCDBFA3
:1001D00011E0A0E0B1E0EEE8F3E302C005900D927B
:1001E000A439B107D9F728E0A4E9B1E001C01D9214
:1001F000AD33B207E1F710E0C2EED0E004C02197C2
:10020000FE010E946817C13ED107C9F70E946A111A
:100210000C94C5190C940000CF93DF93FC018181ED
:1002200090913F03482F490F5527551F48305105DE
:100230009CF5A281B381109709F52BE333E033835A
:100240002283208120933D0380933E0380914003CD
:10025000820F808320914103A22FB09142038A2F05
:10026000821B8917E8F481813D91C82FD0E0C45FDB
:10027000DE4F38838F5F8183F2CFD90118962D919D
:100280003C91199721153105C1F72BE333E01996FD
:100290003C932E931897D5CF80E0DF91CF910895AE
:1002A00081E0FBCFFC0180910F02882311F13FB761
:1002B000F89482E08093E9002091F200822F90E090
:1002C0001816190614F481E090E0882339F0289874
:1002D00044E640930E024091F1004083222339F01E
:1002E0002091F200211103C02BE62093E8003FBFCC
:1002F00008958FEF9FEF0895DC01FB0112962C917A
:100300001297848195812817190641F49181808183
:10031000813A31F49D7F81E0913009F080E00895C9
:100320008132E1F79B3029F482811F968C9381E022
:1003300008959A3099F7828150968C93F8CFDC011A
:10034000FB0188E4808389E4818384E482831D96B1
:100350009C911D979F709F5B93831D968D919C919F
:1003600024E0969587952A95E1F78F708F5B8483BB
:1003700085E008958091060281110DC082E080938E
:10038000020284E08093030210920502109204029C
:1003900081E08093060282E092E00895282F30E009
:1003A000F901E359FE4F9491F901E25BFE4F84910C
:1003B000215D3E4FF9012491222309F430C0992395
:1003C000E9F091509F30D0F4E92FF0E0E651FE4F74
:1003D0000C94681718021C02F90110021402FE01A5
:1003E000FE01FE011F02250229022D023302FE0139
:1003F0003702909180009F7790938000E22FF0E089
:10040000EE0FFF1FEF5DFE4FA591B4919FB7F894DB
:10041000EC91611132C080958E238C939FBF08951B
:10042000909180009F7DE8CF90918000977FE4CFEE
:1004300094B59F7794BDE2CF94B59F7DFBCF90910B
:1004400090009F7790939000D9CF909190009F7DDE
:10045000F9CF90919000977FF5CF9091C0009F7752
:100460009093C000CBCF9091C0009F7DF9CF909129
:10047000C200977F9093C200C1CF8E2BCECF3FB7E3
:10048000F8948091FE019091FF01A0910002B0913B
:10049000010226B5A89B05C02F3F19F00196A11DAA
:1004A000B11D3FBFBA2FA92F982F8827BC01CD01BE
:1004B000620F711D811D911D42E0660F771F881F1D
:1004C000991F4A95D1F708958F929F92AF92BF924C
:1004D000CF92DF92EF92FF924B015C010E943F02AC
:1004E0006B017C010E943F026C197D098E099F09F6
:1004F000683E734081059105A8F321E0821A9108B6
:10050000A108B10888EEC80E83E0D81EE11CF11CDA
:1005100081149104A104B10429F7FF90EF90DF90BA
:10052000CF90BF90AF909F908F90089508950895B9
:100530004091DB015091DC012091D9013091DA0129
:1005400042175307B4F49091E8009570E1F390914D
:10055000E80092FD19C08093F1008091DB01909139
:10056000DC0101968F739927892B19F48EEF809304
:10057000E8008091DB019091DC0101969093DC0111
:100580008093DB0181E0089580E00895DF92EF928F
:10059000FF920F931F93CF93DF93D82E8A01EB0125
:1005A0007B01E40EF51ECE15DF0559F0D7FE12C013
:1005B000FE0184910E94980221968111F4CF0FEFE1
:1005C0001FEFC801DF91CF911F910F91FF90EF9026
:1005D000DF9008958881EECFEF92FF920F931F93E3
:1005E000CF93DF93FB012081213871F523812232E3
:1005F00059F5DC0112964C9124813581421713067E
:1006000019F5EC010B851C85F12CE12C0115110568
:1006100089F0F801448155816281738180E80E94EC
:10062000C6028F3F980749F0E80EF91ED8010D91D8
:100630001C91ECCF81E08F87C701DF91CF911F9193
:100640000F91FF90EF90089590E080E0F6CFCF9368
:10065000DF93CDB7DEB769970FB6F894DEBF0FBE54
:10066000CDBFFC01DB018C918F5F8C939E012D5FD0
:100670003F4F8DE0D9011D928A95E9F729E0298342
:1006800084E08A8391E09D8383E08E832A8721E240
:100690002B879C879D879F8722E2288B27E02B8BC7
:1006A00025E02C8B8E8B20E430E0388F2F8B998FB8
:1006B00082818B8395858685998B8A8B83818068DF
:1006C0008D8B49E150E0BE016F5F7F4F80E00E945B
:1006D000C60269960FB6F894DEBF0FBECDBFDF919C
:1006E000CF9108950F931F93CF93DF931F92CDB7B0
:1006F000DEB782E0898342E450E06CEA70E080E893
:100700000E94C6020E94BA01DC0112960D911C9152
:100710000115110589F0D801ED91FC910280F3815A
:10072000E02DBE016F5F7F4FC801099597FD04C0A2
:10073000F80100851185ECCF89810F90DF91CF9171
:100740001F910F9108952FB7F89487708093E90057
:100750009091E800892F807295FF04C09091F2007B
:1007600080E4891B2FBF08957F928F929F92AF9252
:10077000BF92CF92DF92EF92FF920F931F93CF938E
:10078000DF93C82E8B017A0180910F02811110C076
:100790008FEF9FEFDF91CF911F910F91FF90EF901F
:1007A000DF90CF90BF90AF909F908F907F900895F3
:1007B0008091DF0180FF05C08091E000826080931E
:1007C000E000CE2DDF2DD12C8AEFB82E8C2D877036
:1007D000982E8C2D8072882E8C2D8074782E9AE322
:1007E000A92E209719F4DD2009F452C08C2D0E9407
:1007F000A30381110AC0BA94BB2051F261E070E0FA
:1008000080E090E00E946402ECCF8C171D0611F08E
:100810000CF08C2F9FB7F8949092E9002091E8009B
:1008200025FD02C09FBFDDCF282F30E0C21BD30BB8
:10083000882029F08150A0F01092F100FBCFF80140
:10084000C7FC0AC0815050F041914093F100FACFAB
:1008500044914093F10031968150D0F7020F131F5D
:10086000DD2021F0A092E800D12CDCCF8091E800BF
:1008700085FD07C0A092E800DD24D394209791F273
:10088000F3CF209779F6772069F2A092E800CACFDB
:100890005D9884E68093DE01C7017CCF615030F023
:1008A0002091F100FC0120830196F8CF289884E67E
:1008B00080930E020895CF93DF93EC0180910B019A
:1008C000882331F083E00E94B4031816190634F02F
:1008D00081E090E09B838A8380E090E0DF91CF917C
:1008E0000895CF93DF931F92CDB7DEB76983DC0104
:1008F000ED91FC910280F381E02D41E050E0BE01DA
:100900006F5F7F4F09950F90DF91CF91089583E03E
:100910008093E9008091F200882319F08AE38093A4
:10092000E800089583E00E94A30390E00895CF9328
:10093000DF931F92CDB7DEB7FC018485958597FDC7
:1009400008C02FEF3FEF358724870F90DF91CF91BD
:100950000895CE0101960E945201019719F48981F0
:1009600090E0F3CF8FEF9FEFF0CF0F931F93CF93D4
:10097000DF931F92CDB7DEB78C01FC01848595858E
:1009800097FF0BC0CE0101960E945201019771F4AE
:10099000898190E0F80195878487F80184859585A1
:1009A0000F90DF91CF911F910F9108958FEF9FEFDF
:1009B000F1CFFC018485958597FD0BC09FB7F89416
:1009C00082E08093E9008091F2009FBF90E0019661
:1009D00008959FB7F89482E08093E9008091F20037
:1009E0009FBF90E00895CF93DF93DC01AE53BF4FDC
:1009F0002D913C9111972C5F3F4FFC01E054FF4F2C
:100A00002E173F07F1F011963C932E930D90BC9159
:100A1000A02D4D935D936D937C931397EC01CC5374
:100A2000DF4F28812033A1F4208131812C5F3F4F9B
:100A3000E217F30751F03183208380E0DF91CF91FB
:100A4000089511969C938E93E1CF91838083F5CF87
:100A500081E0820F8883211102C0B183A08381E0ED
:100A6000EDCF8FB7F8948091D8018FBF08958EBDD8
:100A700000000DB407FEFDCF8EB508958CBD9DBD61
:100A800008952091B501260F3327331F21323105F8
:100A9000ECF42091B502FC0190E080E0243069F094
:100AA00082E00895A091B5012191AC014B565E4FB3
:100AB000A40FB52FB11D2C930196861798F3809142
:100AC000B501680F6093B50180E0089581E0089555
:100AD0001092B50281E08093B40210928F0261E01F
:100AE00082E00E94CE0161E083E00E94CE01E9EB4A
:100AF000F0E080818E7F808380818D7F808388E499
:100B00008093B80085E48093BC000895CF93DF9371
:100B100091E0909394018823B9F0C091B800D091EE
:100B2000BA008091BC008A7B8093BC0060E082E0C8
:100B30000E94CE0160E083E00E94CE010E94680521
:100B4000D093BA00C093B800DF91CF9108958F92EF
:100B50009F92AF92BF92CF92DF92EF92FF920F934C
:100B60001F93CF93DF93D091DE02D13208F0D7C02C
:100B7000182FC091DD020E943F026B017C01809121
:100B8000B50281116BC082E08093B5021093B4026C
:100B90008FEF8093B3021092B202D093B102ADEB0B
:100BA000B2E0E1E9F2E080E0D81391C01092900247
:100BB00080919002CC0FC82BC093900280918F023D
:100BC000813009F088C010928F020E943F026B01B1
:100BD0007C01809190028093BB008091B70290913C
:100BE000B802A091B902B091BA02892B8A2B8B2B43
:100BF000A1F00E943F020091B7021091B80220912B
:100C0000B9023091BA026C197D098E099F09061745
:100C100017072807390708F442C08091BC0083FDFC
:100C2000D8CF85EC8093BC000E943F026B017C0111
:100C30008091B502823009F450C08091B3028F3F99
:100C400009F46FC08091B302803209F46CC08091C6
:100C5000B302803309F469C084E026C08091B702F2
:100C60009091B802A091B902B091BA02892B8A2B57
:100C70008B2B09F484CF0E943F028090B7029090A2
:100C8000B802A090B902B090BA026C197D098E0921
:100C90009F0986169706A806B90608F070CF8091BE
:100CA000B6020E94860585E01092BC021092DE0218
:100CB0001092BB02DF91CF911F910F91FF90EF90A7
:100CC000DF90CF90BF90AF909F908F9008959D91AF
:100CD00091938F5F69CF85EEA5CF8091B7029091F8
:100CE000B802A091B902B091BA02892B8A2B8B2B42
:100CF00009F49ECF0E943F020091B7021091B80202
:100D00002091B9023091BA026C197D098E099F09B0
:100D1000061717072807390708F08ACFC0CF81E0E8
:100D2000C3CF80E0C1CF82E0BFCF83E0BDCF0895C5
:100D3000E091110280911002E81730F4F0E0EE5ECD
:100D4000FD4F808190E008958FEF9FEF089590917F
:100D50001102809110022FEF3FEF981748F4E92F0E
:100D6000F0E0EE5EFD4F208130E09F5F9093110236
:100D7000C90108958091100290911102891B990B6D
:100D80000895CF92DF92EF92FF920F931F93CF932C
:100D9000DF937C01CB018A012091BB02222389F0E1
:100DA000EB016B01C40ED51ECC15DD0569F0699110
:100DB000D701ED91FC910190F081E02DC7010995DB
:100DC000F3CF642F0E944105C801DF91CF911F919D
:100DD0000F91FF90EF90DF90CF900895CF93DF9326
:100DE0001F92CDB7DEB769832091BB022223F9F0B1
:100DF0002091DE02203258F021E030E0FC01338304
:100E0000228390E080E00F90DF91CF910895809150
:100E1000BC02E82FF0E0E354FD4F998190838F5F8F
:100E20008093BC028093DE0281E090E0ECCF61E031
:100E3000CE0101960E944105F7CF90E080E0089531
:100E40009C01FC01EC53FF4F8081681750F02E533A
:100E50003F4FD901ED91FC91608171818281938135
:100E60000895F901E054FF4F80819181821B930B1B
:100E70009595879595958795860F911D60E370E010
:100E80000E943217880F991F880F991F280F391F4A
:100E9000F901E2CF0F931F93FC0100E012E12AE772
:100EA00030E090E0401751076207730740F4369531
:100EB0002795179507959F5F9630A1F797E0292F03
:100EC000286B269520839095917091831F910F91A7
:100ED00008954F925F926F927F928F929F92AF92FE
:100EE000BF92CF92DF92EF92FF920F931F93CF9317
:100EF000DF9300D0CDB7DEB7962F01151105A1F411
:100F000080E00F900F90DF91CF911F910F91FF9094
:100F1000EF90DF90CF90BF90AF909F908F907F9099
:100F20006F905F904F9008957801BA01A9018C01EC
:100F300020913702213009F0F6C080913202909161
:100F40003302309136022093BB023093DD021092BF
:100F5000BC021092DE02DC01ED91FC910190F08167
:100F6000E02D602F099580E00E94A70500913602D0
:100F70000E943F024B015C018091B502811166C065
:100F800081E08093B5028093B4029FEF9093B30207
:100F90001092B202910F9093B102809390028091CF
:100FA0009002000F082B0093900280918F028130F5
:100FB00009F093C010928F020E943F024B015C0126
:100FC000809190028093BB008091B7029091B8020B
:100FD000A091B902B091BA02892B8A2B8B2BA1F078
:100FE0000E943F024090B7025090B8026090B90250
:100FF0007090BA02681979098A099B094616570642
:101000006806790608F443C08091BC0083FDD8CF00
:1010100085EC8093BC000E943F024B015C018091F3
:10102000B502813009F45BC08091B202811708F0EB
:1010300078C08091B202A1E9B2E0E2E1F2E090E092
:10104000981751F12D9121939F5FFACF8091B702AC
:101050009091B802A091B902B091BA02892B8A2B63
:101060008B2B09F489CF0E943F024090B702509029
:10107000B8026090B9027090BA02681979098A09B9
:101080009B09461657066806790608F075CF8091C9
:10109000B6020E94860580E0109211028093100231
:1010A0008093380218132CCF6701012F10E0C6017E
:1010B0008E199F098017910708F066C0809132024F
:1010C00090913302DC01ED91FC910284F385E02DD7
:1010D0000995F60181936F01EACF85EE9ACF809151
:1010E000B7029091B802A091B902B091BA02892BCF
:1010F0008A2B8B2B09F493CF0E943F024090B702BA
:101100005090B8026090B9027090BA0268197909DB
:101110008A099B09461657066806790608F07FCFAC
:10112000B6CF812F88CFCE0101960E944A078981D0
:101130009A810E943E0560E0809136020E94CE01B5
:10114000802F80680E943705612F70E0D7018C9155
:101150008EBDF701CB01019741F031810DB407FE3F
:10116000FDCF2EB53EBD2193F6CF615071096E0DB6
:101170007F1D0DB407FEFDCF8EB5FB01808361E0BE
:10118000809136020E94CE0181E0BBCE3F924F9209
:101190005F926F927F928F929F92AF92BF92CF9207
:1011A000DF92EF92FF920F931F93CF93DF9380EC28
:1011B00091EEA4EEB0E08093390290933A02A093AE
:1011C0003B02B0933C021092550206E512E020EC7F
:1011D00031EE44EE50E06FE08AE30E946907382E5A
:1011E000811114C0312C832DDF91CF911F910F916C
:1011F000FF90EF90DF90CF90BF90AF909F908F9037
:101200007F906F905F904F903F900895809156022D
:10121000817080935502882329F3A0905702B090E3
:101220005802BA24AB24BA24B0926602A092650296
:101230006091590270915A0276276727762770933A
:10124000680260936702C0905B02D0905C02DC246D
:10125000CD24DC24D0926A02C0926902E0905D0243
:10126000F0905E02FE24EF24FE24F0927202E092DF
:101270007102C0915F02D0916002DC27CD27DC278C
:10128000D0936C02C0936B020091610210916202D4
:1012900010270127102710936E0200936D02809093
:1012A000630290906402982489249824909270029A
:1012B00080926F0240904302509044026090450239
:1012C00070904602072E000C880B990B0E949E1806
:1012D000A30192010E9453192AE038EE4CE151E437
:1012E0000E94531960937302709374028093750285
:1012F00090937602B501BB0C880B990B0E949E1847
:10130000A30192010E9453192AE038EE4CE151E406
:101310000E94531960937702709378028093790248
:1013200090937A02B601DD0C880B990B0E949E18EF
:10133000A30192010E94531990582AE038EE4CE123
:1013400051E40E94531960937B0270937C02809356
:101350007D0290937E02B701FF0C880B990B0E94CF
:101360009E1820E030E048EA51E40E9482172CE504
:101370003FEE46EA53E40E94F41720E030E048EAEA
:1013800051E40E94831760938B0270938C028093C8
:101390008D0290938E02C0904B02D0904C02E09050
:1013A0004D02F0904E02B801110F880B990B0E946C
:1013B0009E18A70196010E94531925E33AEF4EE8C3
:1013C0005CE30E94531960937F02709380028093C4
:1013D000810290938202BE01DD0F880B990B0E945F
:1013E0009E18A70196010E94531925E33AEF4EE893
:1013F0005CE30E945319609383027093840280938C
:10140000850290938602B401990C880B990B0E9477
:101410009E18A70196010E945319905825E33AEFB0
:101420004EE85CE30E945319609387027093880230
:101430008093890290938A02D6CE8F929F92AF9228
:10144000BF92EF92FF920F931F93CF93DF9300D041
:10145000CDB7DEB7E82EF62E8090390290903A0292
:10146000A0903B02B0903C0220913702213009F05D
:1014700045C0809132029091330230913602209320
:10148000BB023093DD021092BC021092DE02DC013E
:10149000ED91FC910190F081E02D6E2D09958091E8
:1014A000320290913302DC01ED91FC910190F081C8
:1014B000E02D6F2D099581E00E94A7056AE070E09C
:1014C00080E090E00E9464028E010F5F1F4FA50133
:1014D000940161E08E2D0E94690781E099819F113E
:1014E00080E00F900F90DF91CF911F910F91FF90AF
:1014F000EF90BF90AF909F908F900895B501A40199
:10150000CE0101960E944A0789819A810E943E0578
:1015100060E0809136020E94CE018E2D0E94370538
:101520008F2D0E94370561E0809136020E94CE0126
:10153000C5CFFC0101900020E9F73197AF01481BAE
:10154000590BBC018FED92E00C945B048F929F923B
:10155000AF92BF920F931F93CF93DF93CDB7DEB7B8
:10156000A1970FB6F894DEBF0FBECDBF19A24230CF
:1015700008F44AE08E010F5D1F4F842E912CB12C90
:10158000A12CA50194010E944617E62FB901CA01BA
:10159000EA30F4F4E05DD801EE938D01232B242B87
:1015A000252B79F790E080E0109719F0CD010E948B
:1015B000990AA1960FB6F894DEBF0FBECDBFDF919A
:1015C000CF911F910F91BF90AF909F908F900895F2
:1015D000E95CE1CFCF93DF930E94990AEC0183E4A9
:1015E00091E00E94990A8C0F9D1FDF91CF91089581
:1015F0004F925F926F927F928F929F92AF92BF9223
:10160000CF92DF92EF92FF920F931F93CF936B01D4
:101610007C01742EAC019B010E94C019882399F0B3
:1016200086E491E0CF911F910F91FF90EF90DF90B2
:10163000CF90BF90AF909F908F907F906F905F9072
:101640004F900C94990A46015701E894B7F82FEF90
:101650003FEF4FE75FE7C501B4010E94C019811158
:101660000DC02FEF3FEF4FE75FE7C501B4010E94C8
:10167000EF1718161CF48AE491E0D4CF2FEF3FEF58
:101680004FE75FE4C701B6010E944E1918161CF41B
:101690008EE491E0C7CF2FEF3FEF4FE75FECC7013C
:1016A000B6010E94EF1787FDF3CF20E030E0A901DB
:1016B000C701B6010E94EF1710E000E087FF0AC0E3
:1016C0006DE28FED92E00E9471048C01F7FAF094C4
:1016D000F7F8F094C0E060E070E080E09FE37C16F3
:1016E00041F020E030E040E251E40E94F417CF5F87
:1016F000F6CFA70196010E9483172B013C010E949F
:101700006D184B015C014AE00E94A60A7C01E00EC4
:10171000F11ECC23C1F1C501B4010E949C189B01AC
:10172000AC01C301B2010E9482174B015C016EE261
:101730008FED92E00E947104E80EF91EC15018F17D
:1017400020E030E040E251E4C501B4010E945319A9
:101750002B013C010E946D184B01B12CA12C4AE0D9
:10176000C501B4010E94A60AE80EF91EC501B40124
:101770000E949C189B01AC01C301B2010E94821718
:101780004B015C01DBCFC701CF911F910F91FF90FF
:10179000EF90DF90CF90BF90AF909F908F907F9011
:1017A0006F905F904F90089585ED8093BC0080917D
:1017B000B7029091B802A091B902B091BA0207960F
:1017C000A11DB11D23E0B695A795979587952A95FC
:1017D000D1F72091BC0024FD03C01092B5020895FA
:1017E0004091B7025091B8026091B9027091BA026B
:1017F000452B462B472B69F30097A105B10541F016
:101800002AE22A95F1F700C00197A109B109E1CFB9
:101810008091B6020C9486051F920F920FB60F921C
:1018200011242F933F938F939F93AF93BF938091F6
:10183000FA019091FB01A091FC01B091FD01309162
:10184000F90123E0230F2D3758F50196A11DB11D95
:101850002093F9018093FA019093FB01A093FC017E
:10186000B093FD018091FE019091FF01A0910002D3
:10187000B09101020196A11DB11D8093FE019093CC
:10188000FF01A0930002B0930102BF91AF919F911D
:101890008F913F912F910F900FBE0F901F90189531
:1018A00026E8230F0296A11DB11DD2CF1F920F92E1
:1018B0000FB60F9211248F939F938091E100909126
:1018C000E100937F9093E10083FF0FC01092E90045
:1018D00091E09093EB001092EC0092E39093ED0076
:1018E00010920F0298E09093F00082FF22C093E0E4
:1018F0009093E9009091F200992319F09AE3909364
:10190000E8009091DE01992341F09091DE01915021
:101910009093DE01911101C05D9A90910E0299237E
:1019200041F090910E02915090930E02911101C0DE
:10193000289A84FF18C08091E2008E7E8160809397
:10194000E2008091E1008F7E8093E1008091DF01D1
:101950008E7E80618093DF019F918F910F900FBEEB
:101960000F901F90189580FFF7CF8091E2008E7E38
:1019700080618093E2008091E1008E7E8093E1009F
:101980008091DF018E7E8160E5CF1F920F920FB6AE
:101990000F921124CF92DF92EF92FF920F931F9339
:1019A0002F933F934F935F936F937F938F939F9367
:1019B000AF93BF93EF93FF93CF93DF93CDB7DEB792
:1019C0006C97DEBFCDBF1092E9008091E80083FFE5
:1019D00025C068E0CE0145960E944E0482EF8093B8
:1019E000E8008D8987FF39C09091E80090FFFCCF17
:1019F000982F907609F034C19E894F89588D2F8990
:101A0000F88C911131C0803861F58091E0018093AC
:101A1000F1001092F1008EEF8093E8006C960FB603
:101A2000F894DEBF0FBECDBFDF91CF91FF91EF9154
:101A3000BF91AF919F918F917F916F915F914F91E6
:101A40003F912F911F910F91FF90EF90DF90CF90DA
:101A50000F900FBE0F901F9018959EEF9093E80087
:101A6000C7CF1092F100D5CF913059F48111D3CF67
:101A70004130510581F68091E0018D7F8093E00136
:101A8000CACF933049F48111C6CF4130510519F6C0
:101A90008091E0018260F2CF953041F48091E800BE
:101AA00080FFFCCF20682093E300B5CF963009F08B
:101AB000A9C00B8D1C8D22E01092E9001092DC0170
:101AC0001092DB01F2122EC01092DA011092D901AD
:101AD0000E9472031F8299E09983FA8291E09E83AB
:101AE00090EA98879AEF99872091DB013091DC0189
:101AF000275F3F4F3C832B838D831092E900109228
:101B0000DC011092DB011093DA010093D90149E066
:101B100050E0BE016F5F7F4F80E00E94C6020E94CE
:101B2000720379CF1093DA010093D9010E94BA01B0
:101B3000DC0112960D911C910115110509F451C19A
:101B4000D801ED91FC910480F581E02DBE016B5E22
:101B50007F4FC8010995009709F03EC1F801008543
:101B60001185EACFF3E0FF120EC08F89882309F4B4
:101B700040C0823061F440E860E180E191E00E9481
:101B80001610811148CF81E28093EB0047CF81305E
:101B900029F440E86BE084E091E0F1CF833099F7DD
:101BA0000E94BA01DC011296ED90FC908E010F5F4D
:101BB0001F4F6801E114F10479F0D701ED91FC9118
:101BC0000680F781E02DB801C7010995080F111DA6
:101BD000F701E084F184EECFD8011C92F601019068
:101BE0000020E9F73197BF016C197D0940E0C6017B
:101BF000C6CF6EEE70E0FB01449150E080E80E9499
:101C0000C60209CF973009F4BECF983021F481E0A5
:101C10008093F10000CF993009F0FDCE837009F078
:101C2000B2CFEDE0F1E081E031E096E321912223B3
:101C300071F08093E9003093EB00DF0111972C9154
:101C40002093EC009093ED008F5F873079F78EE75B
:101C50008093EA001092EA008F8980930F02DBCE16
:101C60008B8D9C8D1092E9001092DC011092DB01AB
:101C70009093DA018093D901898D811192C08E8968
:101C80009D89913A49F4813209F07DCF47E050E0D7
:101C900064E071E080E0B3CF913209F074CF833219
:101CA00069F48F89988DB0E0A0E080930001909353
:101CB0000101A0930201B0930301ADCE803269F41B
:101CC0008091E80082FFFCCF67E084E091E00E9411
:101CD0004E048BEF8093E8009ECE823209F09BCEBB
:101CE0008F8980930B01EEEFFFE7859194918B3FF5
:101CF0009C4D51F1E0E0F8E08091040190910501E4
:101D0000A0910601B0910701803B9440A105B10567
:101D1000F1F480910B0180FD1AC0EE3F8AE0F807D4
:101D200089F587E797E791838083809160008093AE
:101D3000DD0188E19BE00FB6F894A89580936000E0
:101D40000FBE9093600067CEEEEFFAE0D5CF8081B2
:101D500091818737974709F05ECEA8958091600002
:101D60008861809360008091DD0180936000EE3F88
:101D70002AE0F20789F08091FE0A9091FF0A918390
:101D8000808349CE808191818737980751F2909363
:101D9000FF0A8093FE0AC5CF1092FF0A1092FE0A36
:101DA0003ACE0E94BA01DC0112960D911C910115E8
:101DB000110509F4E8CED801ED91FC910190F08174
:101DC000E02DBE016B5E7F4FC8010995811123CEC6
:101DD000F80100851185EBCF181619060CF41BCEFF
:101DE000D2CEF1E0FF12BECE62EF70E004CF1F92C0
:101DF0000F920FB60F9211242F933F934F935F933F
:101E00006F937F938F939F93AF93BF93EF93FF93C2
:101E10008091B900887F803609F44AC0F0F5883295
:101E200009F4A7C018F5803109F49BC0B8F48823E1
:101E300009F4F9C0883009F494C0FF91EF91BF9183
:101E4000AF919F918F917F916F915F914F913F9152
:101E50002F910F900FBE0F901F901895883109F4A5
:101E600088C0803251F78093B30214C0803409F4E3
:101E70009DC040F48033B9F38833F9F68093B30200
:101E800085ECB0C0803509F485C0883509F496C06A
:101E9000883499F60E94D40BD0CF883909F48CC0CD
:101EA00038F5883729F050F4883611F0803729F654
:101EB00083E08093B5021092D70157C0883809F4A7
:101EC0007BC0803919F0803809F0B7CF8091D701F5
:101ED000803208F071C0E091D70181E08E0F8093CD
:101EE000D7018091BB00F0E0E954FE4F80833DC0F4
:101EF000803B39F0E0F4803A09F479C0883A09F07F
:101F00009CCF84E08093B5021092B6011092B50187
:101F1000E091E301F091E40109958091B50181110F
:101F20000FC081E08093B5011092950109C0803CFB
:101F300009F4A6CF883C09F4A3CF883B09F07DCFF4
:101F4000E091B60181E08E0F8093B601F0E0EB5690
:101F5000FE4F80818093BB009091B6018091B501C6
:101F600029C0809190028093BB0085EC8093BC00D7
:101F700064CF9091B2028091B102981758F5E09128
:101F8000B20281E08E0F8093B202F0E0EF56FD4F77
:101F90008081E9CFE091B20281E08E0F8093B2029E
:101FA0008091BB00F0E0EF56FD4F80839091B2022C
:101FB0008091B1029817C8F285E8D8CFE091B202BB
:101FC00081E08E0F8093B2028091BB00F0E0EF566B
:101FD000FD4F80838091B40281115CCF81E08093BA
:101FE0008F0284EA8093BC001092B50226CF85EC64
:101FF0008093BC001092B5028091D701803230F4FA
:10200000E091D701F0E0E954FE4F10826091D701D2
:1020100070E0E091E101F091E20187EB91E0099538
:102020001092D7010ACF1092B30234CFEF92FF92F1
:102030000F931F93CF93DF93F82E192FE62E042FC3
:1020400081E0860F880F0E94980283E00E94980228
:10205000CF2DD12FEC0EFD2EF11CCE15DF05B9F0E2
:1020600007FF13C0FE0184910E949802182F80E0A0
:102070000E949802812321968111EFCFDF91CF91A9
:102080001F910F91FF90EF9008958881EDCF81E02F
:10209000F5CFCF931092E2021092E10288EE93E026
:1020A000A0E0B0E08093E3029093E402A093E50205
:1020B000B093E60227E131E03093E0022093DF02A3
:1020C0002FEF3FEF3093EC022093EB02109232039C
:1020D000109231038093330390933403A09335031C
:1020E000B093360389E291E09093300380932F03FD
:1020F0001092620380915A03811113C0109255030C
:10210000109254038CE891E0909357038093560308
:1021100086E390E0909359038093580381E0809385
:102120005A0380914C0381112AC0C1E0C0933F0340
:10213000C093400385E493E090934203809341036E
:1021400010924403109243038BE391E090933C037D
:1021500080933B0310924703109246031092490369
:1021600010924803C0934A03C0934B0381EC8093C1
:1021700045030E94BA010E940C01C0934C03E091F8
:102180004603F0914703309709F09BC084E593E044
:1021900090934703809346038091480390914903AD
:1021A0002091580330915903820F931F9093490354
:1021B0008093480388E397E0909339088093380828
:1021C00090933B0880933A0810923C0888E694E08C
:1021D000909329058093280590932B0580932A05D9
:1021E00010922C058DE295E09093EE058093ED051D
:1021F0009093F0058093EF051092F10582EF95E042
:102200009093B3068093B2069093B5068093B4067C
:102210001092B6061092C3061092C4061092C5061C
:102220001092C6061092C7061092C8061092C906F0
:102230001092CA061092CB061092CC061092CD06D0
:102240001092CE061092CF061092D0061092D106B0
:102250001092D2061092D3061092D4061092D50690
:102260001092D6061092D7061092D8061092D90670
:102270001092DA061092B7061092B8061092B906BC
:102280001092BA061092BB061092BC061092BD06C0
:102290001092BE061092BF061092C0061092C106A0
:1022A0001092C20683E693E09093640480936304E3
:1022B000909366048093650410926704CF9108950B
:1022C000FC01808191810097D9F784E593E09183A7
:1022D000808362CFCF93DF93CDB7DEB729970FB658
:1022E000F894DEBF0FBECDBF789484B5826084BD04
:1022F00084B5816084BD85B5826085BD85B581600A
:1023000085BD80916E00816080936E001092810087
:102310008091810082608093810080918100816042
:102320008093810080918000816080938000809103
:1023300091008260809391008091910081608093F0
:102340009100809190008160809390008091C10005
:1023500084608093C1008091C10082608093C1003D
:102360008091C10081608093C1008091C300816031
:102370008093C3008091C00082608093C0008091F0
:10238000C20081608093C20080917A008460809353
:102390007A0080917A00826080937A0080917A003E
:1023A000816080937A0080917A00806880937A00BF
:1023B00010920F021092E0011092DF018091D7007D
:1023C00081608093D70080EA8093D80089B58061CE
:1023D00089BD89B5826089BD09B400FEFDCF61E089
:1023E00070E080E090E00E9464028091D8008F7CD1
:1023F00080618093D8008091E000807F8093E0002E
:102400008091E1008E7E8093E1008DE08093E20078
:10241000559A209A8FEF9FEF9093EC028093EB02F6
:1024200010910B016AE070E080E090E00E9464028D
:102430001123B1F310921102109210021092BC02FB
:102440001092DE020E94680586E992E09093E40112
:102450008093E30187E992E09093E2018093E101A8
:102460008CE08093B8008FE293E0909333028093E6
:10247000320288E680933602BB24B394B0923702CE
:1024800090E4C92E92E4D92E9FE0E92EF12CC0925F
:102490003902D0923A02E0923B02F0923C0261E0B3
:1024A0008BE60E941D0A882309F4B7C020913902E7
:1024B00030913A0240913B0250913C0204E512E017
:1024C00061E085E70E946907882309F4A6C080912E
:1024D0005402803709F0A1C0C0923902D0923A026A
:1024E000E0923B02F0923C0218E110933E0280E839
:1024F00090E0A0E0BAE38093470290934802A09353
:102500004902B0934A0268E18CE10E941D0A8823C7
:1025100009F483C080913E0280933D02809147027E
:1025200090914802A0914902B0914A0280934302DF
:1025300090934402A0934502B0934602C0923902A0
:10254000D0923A02E0923B02F0923C021093400299
:102550008AEF90E0AAE7BDE380934F029093500288
:10256000A0935102B093520268E18BE10E941D0AD0
:10257000882309F452C08091400280933F028091E9
:102580004F0290915002A0915102B091520280935B
:102590004B0290934C02A0934D02B0934E02C09216
:1025A0003902D0923A02E0923B02F0923C02B092A1
:1025B000420261E08DE10E941D0A882371F1609161
:1025C00042028AE10E941D0A882339F18091420269
:1025D00080934102C0923902D0923A02E0923B02CB
:1025E000F0923C0260E089E10E941D0A8823A9F074
:1025F00010925302C0923902D0923A02E0923B020A
:10260000F0923C0261E089E10E941D0A81110AC03A
:1026100089E691E00E94EA0AFFCF82E591E00E94FC
:10262000EA0AFFCF81E0809353021092E5011092F5
:10263000E6011092E7011092E8011092E901109270
:10264000EA011092EB011092EC011092ED01109250
:10265000EE011092EF011092F00108EC10E00E94E0
:10266000C608882309F458C08090770290907802B9
:10267000A0907902B0907A02C0907B02D0907C0248
:10268000E0907D02F0907E022091730230917402FE
:1026900040917502509176026091E5017091E601DA
:1026A0008091E7019091E8010E9483176093E50112
:1026B0007093E6018093E7019093E801A5019401EE
:1026C0006091E9017091EA018091EB019091EC0138
:1026D0000E9483176093E9017093EA018093EB01F4
:1026E0009093EC01A70196016091ED017091EE01CC
:1026F0008091EF019091F0010E9483176093ED01AA
:102700007093EE018093EF019093F00165E070E02B
:1027100080E090E00E9464020150110909F09FCF0F
:1027200020E030E048E453E46091E5017091E60177
:102730008091E7019091E8010E94F4174B015C0140
:102740008092E5019092E601A092E701B092E80143
:1027500020E030E048E453E46091E9017091EA013F
:102760008091EB019091EC010E94F4176B017C01C8
:10277000C092E901D092EA01E092EB01F092EC0103
:1027800020E030E048E453E46091ED017091EE0107
:102790008091EF019091F0010E94F4176093ED0198
:1027A0007093EE018093EF019093F0018092B70651
:1027B0009092B806A092B906B092BA06C092BB0633
:1027C000D092BC06E092BD06F092BE066093BF06B2
:1027D0007093C0068093C1069093C2068BE791E088
:1027E0000E94EA0A42E060E070E0CB010E94F80A31
:1027F00083E491E00E94990A3324339481EC282EDB
:102800000E94C608882309F425C380917302909121
:102810007402A0917502B09176028E839F83A8877F
:10282000B9878093F5019093F601A093F701B093D7
:10283000F801C0907702D0907802E0907902F09091
:102840007A02C092F101D092F201E092F301F0928B
:10285000F4012091B7063091B8064091B906509125
:10286000BA06BC01CD010E9482172B013C012091C8
:10287000BB063091BC064091BD065091BE06C70113
:10288000B6010E9482174B015C012091BF06309176
:10289000C0064091C1065091C20660917B027091C2
:1028A0007C0280917D0290917E020E9482176B01D2
:1028B0007C0129E23CE54FE85DE3C301B2010E94DF
:1028C000EF1787FF0DC029E23CE54FE85DEBC30140
:1028D000B2010E944E1918161CF4412C512C3201E1
:1028E00029E23CE54FE85DE3C501B4010E94EF1722
:1028F00087FF0DC029E23CE54FE85DEBC501B4015F
:102900000E944E1918161CF4812C912C540129E2B6
:102910003CE54FE85DE3C701B6010E94EF1787FF72
:102920000DC029E23CE54FE85DEBC701B6010E940E
:102930004E1918161CF4C12CD12C760101E020E0B0
:1029400030E0A901C301B2010E94EF17811100E03C
:1029500011E020E030E0A901C501B4010E94EF17A9
:10296000811110E0102309F120E030E0A901C70136
:10297000B6010E94EF17811118C01092C306109281
:10298000C4061092C5061092C6061092C706109291
:10299000C8061092C9061092CA061092CB06109271
:1029A000CC061092CD061092CE06B301A20188E6A5
:1029B00094E00E94F304B501A4018DE295E00E9429
:1029C000F304B701A60182EF95E00E94F304109290
:1029D000CF061092D0061092D1061092D206D09057
:1029E0002C050D2D10E0F12CE12C8090CF0690905D
:1029F000D006A090D106B090D206E016F106ACF455
:102A00006E2D88E694E00E942007A50194010E94A3
:102A100083176093CF067093D0068093D10690936E
:102A2000D2069FEFE91AF90AE0CFB801110F880B1F
:102A3000990B0E949E189B01AC01C501B4010E9434
:102A4000F4174B015C018092CF069092D006A092C1
:102A5000D106B092D2066FEF6D0D88E694E00E9429
:102A600020072B013C016EEF6D0D88E694E00E947B
:102A700020079B01AC01C301B2010E94831720E033
:102A800030E040E05FE30E9453192091C30630918B
:102A9000C4064091C5065091C6060E9483176B017B
:102AA0007C012AE939E949E95EE30E94EF1787FFD3
:102AB0000AC02AE939E949E95EEBC701B6010E947B
:102AC0004E191816E4F1A5019401C701B6010E9440
:102AD00082176093C3067093C4068093C5069093D3
:102AE000C6061092D3061092D4061092D506109204
:102AF000D606D090F1050D2D10E0F12CE12C809040
:102B0000D3069090D406A090D506B090D606E016D5
:102B1000F106CCF46E2D8DE295E00E942007A50110
:102B200094010E9483176093D3067093D406809318
:102B3000D5069093D606AFEFEA1AFA0AE0CF60E026
:102B400070E0CB01C6CFB801110F880B990B0E9422
:102B50009E189B01AC01C501B4010E94F4174B0102
:102B60005C018092D3069092D406A092D506B092D2
:102B7000D6066FEF6D0D8DE295E00E9420072B01C8
:102B80003C016EEF6D0D8DE295E00E9420079B01E8
:102B9000AC01C301B2010E94831720E030E040E0A5
:102BA0005FE30E9453192091C7063091C8064091F7
:102BB000C9065091CA060E9483176B017C012AE95D
:102BC00039E949E95EE30E94EF1787FF0AC02AE965
:102BD00039E949E95EEBC701B6010E944E191816A2
:102BE000E4F1A5019401C701B6010E948217609328
:102BF000C7067093C8068093C9069093CA061092C0
:102C0000D7061092D8061092D9061092DA06D09004
:102C1000B6060D2D10E0F12CE12C8090D706909097
:102C2000D806A090D906B090DA06E016F106CCF4EA
:102C30006E2D82EF95E00E942007A50194010E946D
:102C400083176093D7067093D8068093D906909324
:102C5000DA06BFEFEB1AFB0AE0CF60E070E0CB01D1
:102C6000C6CFB801110F880B990B0E949E189B01CB
:102C7000AC01C501B4010E94F4174B015C018092C4
:102C8000D7069092D806A092D906B092DA066FEFD6
:102C90006D0D82EF95E00E9420072B013C016EEF45
:102CA0006D0D82EF95E00E9420079B01AC01C301EE
:102CB000B2010E94831720E030E040E05FE30E9411
:102CC00053192091CB063091CC064091CD065091FE
:102CD000CE060E9483176B017C012AE939E949E994
:102CE0005EE30E94EF1787FF0BC02AE939E949E943
:102CF0005EEBC701B6010E944E1918160CF49CC079
:102D0000A5019401C701B6010E9482176093CB060A
:102D10007093CC068093CD069093CE0642E06E81F0
:102D20007F81888599850E94F80A8EE891E00E944B
:102D3000990A6091F1017091F2018091F3019091F3
:102D4000F40142E00E94F80A8EE891E00E94990A9C
:102D50006091C7067091C8068091C9069091CA0615
:102D60000E946618162F6091C3067091C406809168
:102D7000C5069091C6060E946618809162038983F9
:102D80006A831B831C8280914C03811128C030927E
:102D90003F033092400385E493E090934203809395
:102DA00041031092440310924303ABE3B1E0B093AC
:102DB0003C03A0933B0310924703109246031092EA
:102DC00049031092480330924A0330924B032092F9
:102DD00045030E94BA010E940C0130924C033D82CF
:102DE00041E050E0BE016B5F7F4F80913E030E9447
:102DF000B40397FD0AC080913E0344E050E0BE0159
:102E00006F5F7F4F80640E94B40310E000E0809108
:102E10002C0580171106A1F09CF0602F88E694E045
:102E20000E94200742E00E94F80A80E991E00E9497
:102E3000990A0F5F1F4FEBCF60E070E0CB0166CFC8
:102E400083E491E00E94990A6AE070E080E090E0FB
:102E50000E94640280E090E0892B09F4D1CC0E94AA
:102E60000000CECC97FB072E16F4009407D077FD18
:102E700009D00E946E1707FC05D03EF4909581950D
:102E80009F4F0895709561957F4F0895A1E21A2E86
:102E9000AA1BBB1BFD010DC0AA1FBB1FEE1FFF1FFE
:102EA000A217B307E407F50720F0A21BB30BE40B4E
:102EB000F50B661F771F881F991F1A9469F7609595
:102EC0007095809590959B01AC01BD01CF0108954F
:102ED000EE0FFF1F0590F491E02D0994AA1BBB1B78
:102EE00051E107C0AA1FBB1FA617B70710F0A61B0A
:102EF000B70B881F991F5A95A9F780959095BC012B
:102F0000CD0108955058BB27AA270E949A170C9408
:102F100014190E94061938F00E940D1920F039F496
:102F20009F3F19F426F40C9403190EF4E095E7FB87
:102F30000C94FD18E92F0E94251958F3BA1762075F
:102F400073078407950720F079F4A6F50C944719C8
:102F50000EF4E0950B2EBA2FA02D0B01B9019001B4
:102F60000C01CA01A0011124FF27591B99F0593FF8
:102F700050F4503E68F11A16F040A22F232F342F40
:102F80004427585FF3CF469537952795A795F0408E
:102F90005395C9F77EF41F16BA0B620B730B840BA3
:102FA000BAF09150A1F0FF0FBB1F661F771F881F5B
:102FB000C2F70EC0BA0F621F731F841F48F48795B3
:102FC00077956795B795F7959E3F08F0B0CF9395A5
:102FD000880F08F09927EE0F9795879508950E941E
:102FE000D91808F481E008950E9408180C94141967
:102FF0000E940D1958F00E94061940F029F45F3F15
:1030000029F00C94FD1851110C9448190C940319D3
:103010000E94251968F39923B1F3552391F3951B69
:10302000550BBB27AA2762177307840738F09F5FE9
:103030005F4F220F331F441FAA1FA9F335D00E2E56
:103040003AF0E0E832D091505040E695001CCAF7C3
:103050002BD0FE2F29D0660F771F881FBB1F261786
:1030600037074807AB07B0E809F0BB0B802DBF015D
:10307000FF2793585F4F3AF09E3F510578F00C942C
:10308000FD180C9448195F3FE4F3983ED4F38695FD
:1030900077956795B795F7959F5FC9F7880F911D4D
:1030A0009695879597F90895E1E0660F771F881F39
:1030B000BB1F621773078407BA0720F0621B730BEC
:1030C000840BBA0BEE1F88F7E09508950E946D18E7
:1030D0006894B1110C94481908950E942D1988F034
:1030E0009F5798F0B92F9927B751B0F0E1F0660FCC
:1030F000771F881F991F1AF0BA95C9F714C0B1300D
:1031000091F00E944719B1E008950C944719672F78
:10311000782F8827B85F39F0B93FCCF3869577953B
:103120006795B395D9F73EF4909580957095619524
:103130007F4F8F4F9F4F0895E89409C097FB3EF44F
:1031400090958095709561957F4F8F4F9F4F9923F4
:10315000A9F0F92F96E9BB279395F6958795779572
:103160006795B795F111F8CFFAF4BB0F11F460FF32
:103170001BC06F5F7F4F8F4F9F4F16C0882311F08A
:1031800096E911C0772321F09EE8872F762F05C09E
:10319000662371F096E8862F70E060E02AF09A9539
:1031A000660F771F881FDAF7880F9695879597F92E
:1031B0000895990F0008550FAA0BE0E8FEEF1616C8
:1031C0001706E807F907C0F012161306E407F5071B
:1031D00098F0621B730B840B950B39F40A2661F08F
:1031E000232B242B252B21F408950A2609F4A14032
:1031F000A6958FEF811D811D089597F99F6780E83F
:1032000070E060E008959FEF80EC089500240A9438
:103210001616170618060906089500240A941216B1
:103220001306140605060895092E0394000C11F4E4
:10323000882352F0BB0F40F4BF2B11F460FF04C091
:103240006F5F7F4F8F4F9F4F089557FD9058440FEA
:10325000551F59F05F3F71F04795880F97FB991FF5
:1032600061F09F3F79F087950895121613061406B2
:10327000551FF2CF4695F1DF08C01616170618063F
:10328000991FF1CF86957105610508940895E8941A
:10329000BB2766277727CB0197F908950E94D91895
:1032A00008F48FEF08950E9466190C9414190E9477
:1032B000061938F00E940D1920F0952311F00C9496
:1032C000FD180C94031911240C9448190E94251917
:1032D00070F3959FC1F3950F50E0551F629FF00169
:1032E000729FBB27F00DB11D639FAA27F00DB11D82
:1032F000AA1F649F6627B00DA11D661F829F22270B
:10330000B00DA11D621F739FB00DA11D621F839F91
:10331000A00D611D221F749F3327A00D611D231F67
:10332000849F600D211D822F762F6A2F11249F57B5
:1033300050409AF0F1F088234AF0EE0FFF1FBB1FB8
:10334000661F771F881F91505040A9F79E3F510577
:1033500080F00C94FD180C9448195F3FE4F3983EFC
:10336000D4F3869577956795B795F795E7959F5F21
:10337000C1F7FE2B880F911D9695879597F90895B3
:0E3380000E94D918880B990B0895F894FFCF7E
:10338E00FFFFFFFF00E100000000000000C1808190
:10339E000000000000000071045B0492048704D951
:1033AE00049704B50400000000EE06C1061D079741
:1033BE0006BA06A7069806000000007C012703EC5B
:1033CE00029F010D0A006E616E00696E66006F76D7
:1033DE0066004572726F7220696E697469616C69FC
:1033EE007A696E6720494D55004572726F7220736F
:1033FE00657474696E67205352440043616C696250
:10340E00726174696F6E206D65616E3A20000900FD
:04341E002C2000005E
:00000001FF
